:100000000C9441010C945E010C945E010C94EF0F72
:100010000C945E010C945E010C945E010C945E01E4
:100020000C945E010C945E010C945E010C945E01D4
:100030000C945E010C945E010C940D0F0C945E0107
:100040000C942D0F0C945E010C945E010C945E01D7
:100050000C9433160C945E010C94B0190C945E0150
:100060000C945E010C94BD1D0C945E010C945E0119
:100070000C945E010C945E010C945E010C945E0184
:100080000C945E010C945E010C945E010C94A60F1E
:100090000C945E010C945E010C945E010C945E0164
:1000A0000C945E010C945E010C945E010C942F1C68
:1000B0000C945E010C945E010C945E010C945E0144
:1000C0000C945E010C945E010C945E010C945E0134
:1000D0000C945E010C945E010C945E010C945E0124
:1000E0000C945E010C945E010C94FB1C0C94E21BBE
:1000F0000C945E010C945E010C945E010C945E0104
:100100000C947C0F0C94D50F0C94550F0C945E013D
:100110000C945E010C945E010C945E010C945E01E3
:100120000C945E010C945E010C945E010C945E01D3
:100130000C945E010C94C50E0C945E010C94E50EBB
:100140000C945E010C945E010C945E010C945E01B3
:100150000C945E010C945E010C945E010C945E01A3
:100160000C945E010C945E010C945E010C945E0193
:100170000C945E010C945E010C945E010C945E0183
:100180000C945E010C945E010C945E010C945E0173
:100190000C945E010C945E010C945E010C945E0163
:1001A0000C945E010C945E010C945E010C945E0153
:1001B0000C945E010C945E010C945E010C945E0143
:1001C0000C945E010C945E010C945E010C945E0133
:1001D0000C945E010C945E010C945E010C945E0123
:1001E0000C945E010C945E010C945E010C945E0113
:1001F0000C945E010C945E010C945E01C404A40492
:10020000890470049B0304049B03510438049B037A
:100210009B031A04DE03E60463054B05C6058E0343
:10022000B2058E03960580058E038E0330052A05E0
:1002300006061606140612060805100608050E0620
:100240000C06080508050A060806B40A9E0A880A6C
:10025000720A5C0A460AC30AAE0B980B820B6C0B3F
:10026000560B400BBD0BA30C8D0C770C610C4B0C8B
:10027000350CB20C9D0D870D710D5B0D450D2F0DCD
:10028000AC0D11241FBECFEFCDBFDFE2DEBF11E208
:10029000A0E0B0E2EEE6F1E402C005900D92A439D0
:1002A000B107D9F72CE2A4E9B1E201C01D92AA3549
:1002B000B207E1F70E9409100C94B5200C940000DD
:1002C0008F92AF92BF92CF92DF92EF920F931F92D5
:1002D00081E08F938BE291E29F938F9381E2882E4E
:1002E0009BE2A92EB12C21E2C22E22E2D22EE12CD9
:1002F00001E021E042E061E082E994E00E944014E4
:100300000F900F900F900F900F91EF90DF90CF9084
:10031000BF90AF908F900895CF93DF9380E8809344
:100320000606C0E4D6E08E8380E099E00E94481182
:1003300080E098E00E94481181E0809366068E83F9
:10034000DF91CF9108950C9443180E94C20D92E062
:1003500080E830E221E0809305064FEF51EE64E043
:10036000415050406040E1F700C000008093060615
:10037000309365064FEF51EE64E0415050406040CD
:10038000E1F700C0000030936606809345064FEF0A
:1003900051EE64E0415050406040E1F700C0000081
:1003A000809346062093E5074FEF51EE64E04150FD
:1003B00050406040E1F700C000002093E6079150F4
:1003C00051F68FEF93EC29E0815090402040E1F707
:1003D00000C0000092E080E830E221E08093050652
:1003E00030936506809345062093E5074FEF53EC65
:1003F00069E0415050406040E1F700C00000809348
:10040000060630936606809346062093E6074FEF74
:1004100053EC69E0415050406040E1F700C00000FB
:100420009150E1F68FEF93ED20E381509040204012
:10043000E1F700C0000080E2809365060895E1E2E4
:10044000F2E2128213828CE0848316821782108675
:1004500011861286138614861586168617868AE0FC
:10046000808B118A21E0228B82E390E0838B948B36
:1004700088EE93E0858B968B178A108E3EE0318F45
:10048000128E238F2DE730E0248F358F868F978F44
:1004900010A211A212A213A214A215A211A60895CD
:1004A000E1E2F2E216821782108611861286138626
:1004B0001486158681E392E20E94AC0882E392E200
:1004C0000E945E0883E392E20E94770984E392E24D
:1004D0000E94E40986E392E20E94D90A8AE392E24A
:1004E0000E94E1088BE392E20E9485088CE392E28D
:1004F0000E949D098DE392E20E94D30B8FE392E26A
:100500000E94C80C83E492E20E94160984E492E2FD
:100510000E9446098AE492E20C947E0780919B2116
:10052000882371F080E88093050680919A218111DB
:100530000EC080E88093460680E2809365060895A9
:1005400080E88093060680919A21882391F380E8C1
:100550008093450680E280936506089580E8809345
:1005600006068093460680E28093660608958CE036
:100570008093252285E292E20C94A90708950895BC
:1005800008950895EF920F931F931092982110925F
:1005900099218091A121811110C08091A021811108
:1005A00024C08091A32181114CC08091A22181118E
:1005B00034C01F910F91EF9008950E946A1B009123
:1005C0002722109128222091292230912A22601777
:1005D00071078207930709F71092A12181E08093A8
:1005E000A3218091A021882361F10E946A1B0091C0
:1005F0002722109128222091292230912A22601747
:1006000071078207930769F61092A02181E0809319
:10061000A2218091A321811114C01092A22181E016
:1006200080939A210E94731B81111CC080913A22F1
:10063000882391F181E0809396211F910F91EF9093
:1006400008951092A32181E080939B210E94731B47
:1006500081110CC080913122882361F081E0809368
:100660009721A3CF80E880934506E0CF80E8809370
:100670000506F0CF20911F223091202240911D22AB
:1006800050911E22EE24E39401E06091142280E058
:1006900099E00E94341189CF20911B2230911C22B5
:1006A0004091122250911322EE24E39401E06091D4
:1006B0001A2280E098E00E9434117BCF08950F93B6
:1006C0001F93CF93DF9380919D21811161C0809111
:1006D0009C21811147C080919F21882329F010928D
:1006E0009F2181E08093952180919E21882329F08C
:1006F00010929E2181E080939421809197218823FC
:1007000049F0E09131228E2F90E0FC013297ED30DC
:10071000F10500F140919821509199218091962105
:10072000882349F0E0913A228E2F90E0FC01329725
:10073000ED30F10558F04F5F5F4F40939821509393
:100740009921DF91CF911F910F910895E250FF4FB2
:100750000C94651EE55FFE4F4091982150919921C0
:100760000C94651E0E946A1B00912B2210912C2272
:1007700020912D2230912E22601771078207930756
:1007800009F0A9CF10929C2181E080939421A3CFFE
:100790000E946A1B00912B2210912C2220912D2265
:1007A00030912E22601771078207930709F08FCFCF
:1007B00010929D2181E08093952189CFE0E0C1E0F6
:1007C000CA0187709927892B99F5E11122C1CC23A1
:1007D00009F4B1CF81E0809345060E9461174091F2
:1007E00015225091162221E06091172280E098E0B6
:1007F0000E94291180912422813009F4DDC14091A9
:1008000098215091992197CFE0E09A01369527954C
:10081000ABE7B4E10E946B1E9695879562E3689FF3
:100820009001699F300D1124C1E04217530769F20E
:10083000C0E0CBCFE0E09A01ADECBCEC0E946B1EB7
:100840009695879596958795969587959C01220F05
:10085000331F880F991F880F991F880F991F820FC8
:10086000931FC1E04817590709F4AFCFC0E0ADCFDF
:10087000E0E09A01ADECBCEC0E946B1E9295829573
:100880008F7089279F70892764E1689F9001699F15
:10089000300D1124C1E04217530709F496CFC0E090
:1008A00094CFE0E09A01AFEAB7E40E946B1E281BE8
:1008B000390B36952795820F931F929582958F70ED
:1008C00089279F70892769E1689F9001699F300D92
:1008D0001124C1E04217530709F477CFC0E075CF68
:1008E000E0E09A013695279536952795ABE7B4E178
:1008F0000E946B1E9695879564E6689F9001699F9C
:10090000300D1124C1E04217530709F45ECFC0E057
:100910005CCFE0E09A013695279536952795369578
:100920002795ABE7B4E10E946B1E9695879568EC1E
:10093000689F9001699F300D1124C1E04217530751
:1009400009F443CFC0E041CFE0E09A013695279506
:1009500036952795A5ECB0E20E946B1E9295829584
:100960008F7089279F70892764EF71E0869F9001BF
:10097000879F300D969F300D1124C1E04217530719
:1009800009F423CFC0E021CFE0E09A013695279506
:100990003695279536952795A5ECB0E20E946B1EFB
:1009A000929582958F7089279F70892768EE73E0F2
:1009B000869F9001879F300D969F300D1124C1E0D6
:1009C0004217530709F401CFC0E0FFCE9A013695D4
:1009D00027953695279536952795A5ECB0E20E9488
:1009E0006B1E929582958F7089279F70892768EE7C
:1009F00073E0869F9001879F300D969F300D1124E4
:100A00004217530709F08ACE809196218111F1C0D7
:100A1000C0E0D1E0D09365060E9461174091182292
:100A20005091192221E06091112280E099E00E940A
:100A30002911C111C8C080912322813009F0DFCE75
:100A400081E08093212260E080E20E94AF17C11113
:100A5000D1CED5CECA0187709927892BA9F25ECE57
:100A60009A01ADECBCEC0E946B1E9695879596950D
:100A70008795969587959C01220F331F880F991FA4
:100A8000880F991F880F991F820F931F48175907C6
:100A900009F4BACF43CE9A01369527953695279516
:100AA00036952795ABE7B4E10E946B1E9695879526
:100AB00068EC689F9001699F300D1124421753071D
:100AC00009F4A2CF2BCE9A01369527953695279516
:100AD000A5ECB0E20E946B1E929582958F708927DB
:100AE0009F70892764EF71E0869F9001879F300D8A
:100AF000969F300D11244217530709F485CF0ECE6F
:100B00009A01ADECBCEC0E946B1E929582958F70A1
:100B100089279F70892764E1689F9001699F300D44
:100B200011244217530709F46FCFF8CD9A01AFEAA9
:100B3000B7E40E946B1E281B390B36952795820F50
:100B4000931F929582958F7089279F70892769E1FD
:100B5000689F9001699F300D11244217530709F4D3
:100B600053CFDCCD9A0136952795ABE7B4E10E94CF
:100B70006B1E9695879562E3689F9001699F300D83
:100B800011244217530709F43FCFC8CD9A01369577
:100B9000279536952795ABE7B4E10E946B1E969595
:100BA000879564E6689F9001699F300D1124421774
:100BB000530709F429CFB2CD8093222260E081E26D
:100BC0000E94AF171CCED09345060E94611740913A
:100BD00015225091162221E06091172280E098E0C2
:100BE0000E94291180912322813009F003CEC1E0B7
:100BF00027CF80913A2290E0FC013297ED30F10549
:100C000008F006CFE85EFE4F0C94651EE1E0BDCE15
:100C1000E1E0D5CDE1E00FCEE1E02BCEE1E042CE48
:100C2000E1E0F3CDE1E05DCEE1E074CEE1E08DCE38
:100C300084E0809325069AE69A95F1F700C08093A8
:100C400066060895089508950895089508950895ED
:100C500008950895089590EE980F913240F490E031
:100C60008097FC01E85FFE4D2081261711F080E09F
:100C70000895880F991FFC01EE5BFF4D0190F081F4
:100C8000E02D099581E0089590EE980F913248F497
:100C9000E82FF0E0B097DF01A85FBE4D9C9196175A
:100CA00011F080E00895EE0FFF1FDF01AA53BF4D42
:100CB0008D919C9182179307A1F7E050F04E01901F
:100CC000F081E02DCA010994FC018081982F9E7F5C
:100CD00021F48093232281E0089580E00895FC01AF
:100CE0008081982F9E7F21F48093242281E00895B3
:100CF00080E0089580919B21882349F023E089E0DA
:100D000090919A219111822F80932522089526E0B7
:100D10008CE0F6CFFC01808180FF08C090913122E9
:100D20009F3021F090919B21992379F181FF08C098
:100D300090913A229F3021F090919A21992359F174
:100D400082FF0CC0909131229F3041F01092A3217C
:100D50001092A12190919B21911123C083FF11C07A
:100D600090913A229F3069F01092A2211092A02116
:100D700090919A21992329F091E090939C211092CF
:100D80009E218093262281E0089591E09093A121F5
:100D90001092A321CBCF91E09093A0211092A22199
:100DA000CFCF91E090939D2110929F21D7CFFC014E
:100DB00080819181A281B381809327229093282200
:100DC000A0932922B0932A2281E00895FC0180811A
:100DD0009181A281B38180932B2290932C22A093A6
:100DE0002D22B0932E2281E00895FC018081809312
:100DF0002F2281E00895FC0180818093302281E0E0
:100E00000895FC0180818093382281E00895FC01DF
:100E100080818093392281E00895FC018081809354
:100E2000412281E00895FC0180818093422281E08B
:100E30000895FC0180818093452281E00895FC01A2
:100E400080818093462281E00895FC018081909109
:100E50004322911102C080FD0DC090914422911156
:100E600005C081FF03C092E090934506809347221E
:100E700081E0089592E090936506EFCFFC018081B8
:100E800090914322911102C080FD0DC090914422A7
:100E9000911105C081FF03C092E0909346068093B4
:100EA000482281E0089592E090936606EFCF08957E
:100EB000FC01808190914322911102C080FD0DC000
:100EC00090914422911105C081FF03C092E090935C
:100ED00047068093492281E0089592E09093670647
:100EE000EFCF8091680686958170E1E2F2E281A7FA
:100EF000909148069270892B81A70895FC0180810A
:100F000090914322911105C092E080FF0FC0909311
:100F1000650690914422911105C092E081FD09C0BF
:100F20009093460680934A2281E008959093660646
:100F3000F0CF9093450680934A2281E008958091F6
:100F4000280683FB882780F980934B22089580E050
:100F50000895EF920F93CF93FC01C081C0FF09C0A9
:100F6000809131228F3029F080919B21882309F4D0
:100F70008DC0C1FF09C080913A228F3029F0809145
:100F80009A21882309F488C0C2FF0CC080913122C5
:100F90008F3041F01092A3211092A12180919B21CA
:100FA000811180C0C3FF0CC080913A228F3041F084
:100FB0001092A2211092A02180919A21811178C0D3
:100FC000C4FF2BC0809131228F3039F180919B2159
:100FD000811135C08091A121811131C08091A3215F
:100FE00081112DC00E94731B882319F080E8809323
:100FF000050620911F223091202240911D22509100
:101000001E22EE24E39401E06091142280E099E036
:101010000E94341181E080939521C5FF30C08091FA
:101020003A228F3061F180919A21811108C080911C
:10103000A021811104C08091A221882329F080E0A1
:10104000CF910F91EF9008950E94731B882319F0A0
:1010500080E88093050620911B2230911C2240914C
:10106000122250911322EE24E39401E060911A229F
:1010700080E098E00E94341181E080939421C09335
:10108000252281E0CF910F91EF9008951092A12138
:1010900081E08093A3216DCF1092A02181E0809305
:1010A000A22172CF10929D2181E080939F217ACF5F
:1010B00010929C2181E080939E2182CFFC0180814F
:1010C000982F9E7F01F5882381F0813051F490E1C3
:1010D000909306069AE69A95F1F700C098E09093EF
:1010E00006068093322281E0089598E090930506E9
:1010F000FAE6FA95F1F700C090E190930506809327
:10110000322281E0089580E00895FC018081982FCB
:101110009E7F01F5882381F0813051F490E2909315
:1011200046069AE69A95F1F700C090E1909346063C
:1011300080933B2281E0089590E190934506FAE682
:10114000FA95F1F700C090E29093450680933B2218
:1011500081E0089580E00895CF93FC0180919B2168
:1011600081111DC09091A321911117C0C0819C2FA6
:10117000907F99F4CF30B1F080E2809306068AE642
:101180008A95F1F700C020E040E060E080E696E05C
:101190000E94DB10C093312281E0CF91089580E05E
:1011A000CF91089521E040E060E080E696E00E9463
:1011B000C6108AE68A95F1F700C080E280930506A2
:1011C000E9CFCF93FC0180919A2181111DC09091AC
:1011D000A221911117C0C0819C2F907F99F4CF302C
:1011E000B1F080E4809306068AE68A95F1F700C0A4
:1011F00020E040E060E080E496E00E94DB10C093D5
:101200003A2281E0CF91089580E0CF91089521E0C6
:1012100040E060E080E496E00E94C6108AE68A958D
:10122000F1F700C080E480930506E9CFCF93FC017D
:10123000C0818C2F8C7FC1F4C13041F0C0F0C2302E
:10124000B1F0C093432281E0CF91089520E040E0C7
:1012500061E080E696E00E94C6108AE68A95F1F782
:1012600000C0C0932506EDCF80E0CF91089581E0C6
:1012700080932606FAE6FA95F1F700C021E040E0F7
:1012800061E080E696E00E94DB10DBCFCF93FC01AB
:10129000C0818C2F8C7FC9F4C13041F0C8F0C230BE
:1012A000B9F0C093442281E0CF91089520E040E05E
:1012B00061E080E496E00E94C6108AE68A95F1F724
:1012C00000C082E080932506ECCF80E0CF910895A6
:1012D00082E080932606FAE6FA95F1F700C021E055
:1012E00040E061E080E496E00E94DB10DACF0F93EB
:1012F000CF93FC01C0818C2F8E7FD9F4CC2381F059
:10130000C13041F401E022E040E061E080E096E09D
:101310000E94F310C093332281E0CF910F91089582
:1013200001E021E040E061E080E096E00E94F310FF
:10133000F1CF80E0CF910F9108950F93CF93FC01EF
:10134000C0818C2F8E7FD9F4CC2381F0C13041F441
:1013500001E020E440E061E080E696E00E94F310C6
:10136000C0933C2281E0CF910F91089501E020E8E5
:1013700040E061E080E696E00E94F310F1CF80E06B
:10138000CF910F91089580E0089580E00895089529
:101390000895089508950895089508950895089565
:1013A0000895089508950895089508950895089555
:1013B0000895089508950895089508950895089545
:1013C0000895089508950895EF92FF920F931F9343
:1013D000CF93FC0160817181CB010197883E9340DE
:1013E00020F480919B21882341F0C0E08C2FCF9185
:1013F0001F910F91FF90EF900895609334227093A6
:10140000352280E090E00E948D1F9B01AC018DE1B0
:10141000E82E82E2F82E04E112E260E078E488EE41
:1014200091E00E944D11609136227091372280E048
:1014300090E00E948D1F9B01AC0160E074E284E7A4
:1014400099E40E94EC1E9B01AC0198E1E92E92E226
:10145000F92E01E112E260E078E488EE91E00E946A
:101460004D11C09114228C2F90E0FC013197E73090
:10147000F10510F0C1E0BACFEB5DFE4F609136226E
:101480007091372280E090E00C94651E0E948D1FC1
:1014900020E030E040E052E40E943F2020E030E0D5
:1014A00040E85BE30E943F200E945E1F60931F2282
:1014B00070932022C1E09ACF0E948D1F20E030E07F
:1014C00040E052E40E943F2020E030E040E85CE34E
:1014D0000E943F200E945E1F60931F227093202273
:1014E000C1E084CF0E948D1F20E030E040E052E454
:1014F0000E943F2020E030E040E05EE30E943F2079
:101500000E945E1F60931F2270932022C1E06ECF65
:101510000E948D1F20E030E040E052E40E943F2016
:1015200020E030E040E85EE30E943F200E945E1F22
:1015300060931F2270932022C1E058CF0E948D1F1C
:1015400020E030E040E052E40E943F2020E030E024
:1015500040E05FE30E943F200E945E1F60931F22D5
:1015600070932022C1E042CF0E948D1F20E030E026
:1015700040E052E40E943F200E945E1F60931F22C1
:101580007093202233CF0E948D1F20E030E040E096
:1015900052E40E943F2020E030E040E85AE30E94FD
:1015A0003F200E945E1F60931F2270932022C1E0A3
:1015B0001DCFEF92FF920F931F93CF93FC01808179
:1015C00091819C01245631092532334120F4209128
:1015D0009B21222341F0C0E08C2FCF911F910F91CE
:1015E000FF90EF9008958093362290933722609178
:1015F00034227091352280E090E00E948D1F9B0183
:10160000AC018DE1E82E82E2F82E04E112E260E006
:1016100078E488EE91E00E944D116091362270913D
:10162000372280E090E00E948D1F9B01AC0160E0BA
:1016300074E284E799E40E94EC1E9B01AC0198E1FE
:10164000E92E92E2F92E01E112E260E078E488EE00
:1016500091E00E944D11C09114228C2F90E0FC016A
:101660003197E730F10510F0C1E0B6CFE45DFE4FF1
:10167000609136227091372280E090E00C94651ED4
:101680000E948D1F20E030E040E052E40E943F20A5
:1016900020E030E040E85BE30E943F200E945E1FB4
:1016A00060931F2270932022C1E096CF0E948D1F6D
:1016B00020E030E040E052E40E943F2020E030E0B3
:1016C00040E85CE30E943F200E945E1F60931F225F
:1016D00070932022C1E080CF0E948D1F20E030E077
:1016E00040E052E40E943F2020E030E040E05EE332
:1016F0000E943F200E945E1F60931F227093202251
:10170000C1E06ACF0E948D1F20E030E040E052E44B
:101710000E943F2020E030E040E85EE30E943F204E
:101720000E945E1F60931F2270932022C1E054CF5D
:101730000E948D1F20E030E040E052E40E943F20F4
:1017400020E030E040E05FE30E943F200E945E1F07
:1017500060931F2270932022C1E03ECF0E948D1F14
:1017600020E030E040E052E40E943F200E945E1FF3
:1017700060931F22709320222FCF0E948D1F20E0A4
:1017800030E040E052E40E943F2020E030E040E8BA
:101790005AE30E943F200E945E1F60931F227093B5
:1017A0002022C1E019CFEF92FF920F931F93CF93A6
:1017B000FC0160817181CB010197883E934020F448
:1017C00080919A21882341F0C0E08C2FCF911F9106
:1017D0000F91FF90EF90089560933D2270933E2209
:1017E00080E090E00E948D1F9B01AC0182E1E82E19
:1017F00082E2F82E0AE112E260E078E488EE91E0FD
:101800000E944D1160913F227091402280E090E053
:101810000E948D1F9B01AC0160E074E284E799E4B3
:101820000E94EC1E9B01AC0195E1E92E92E2F92E9B
:1018300007E112E260E078E488EE91E00E944D1149
:10184000C0911A228C2F90E0FC013197E730F1050E
:1018500010F0C1E0BACFED5CFE4F60913F22709175
:10186000402280E090E00C94651E0E948D1F20E0D5
:1018700030E040E052E40E943F2020E030E040E8C9
:101880005BE30E943F200E945E1F60931B227093C7
:101890001C22C1E09ACF0E948D1F20E030E040E082
:1018A00052E40E943F2020E030E040E85CE30E94E8
:1018B0003F200E945E1F60931B2270931C22C1E098
:1018C00084CF0E948D1F20E030E040E052E40E946F
:1018D0003F2020E030E040E05EE30E943F200E9495
:1018E0005E1F60931B2270931C22C1E06ECF0E948A
:1018F0008D1F20E030E040E052E40E943F2020E0D5
:1019000030E040E85EE30E943F200E945E1F60934B
:101910001B2270931C22C1E058CF0E948D1F20E033
:1019200030E040E052E40E943F2020E030E040E020
:101930005FE30E943F200E945E1F60931B22709312
:101940001C22C1E042CF0E948D1F20E030E040E029
:1019500052E40E943F200E945E1F60931B227093FE
:101960001C2233CF0E948D1F20E030E040E052E483
:101970000E943F2020E030E040E85AE30E943F20F0
:101980000E945E1F60931B2270931C22C1E01DCF3A
:10199000EF92FF920F931F93CF93FC01808191816F
:1019A0009C01245631092532334120F420919A219B
:1019B000222341F0C0E08C2FCF911F910F91FF9017
:1019C000EF90089580933F229093402260913D22B2
:1019D00070913E2280E090E00E948D1F9B01AC013F
:1019E00082E1E82E82E2F82E0AE112E260E078E479
:1019F00088EE91E00E944D1160913F22709140224B
:101A000080E090E00E948D1F9B01AC0160E074E2D9
:101A100084E799E40E94EC1E9B01AC0195E1E92E5C
:101A200092E2F92E07E112E260E078E488EE91E0BC
:101A30000E944D11C0911A228C2F90E0FC01319729
:101A4000E730F10510F0C1E0B6CFE65CFE4F6091E3
:101A50003F227091402280E090E00C94651E0E942D
:101A60008D1F20E030E040E052E40E943F2020E063
:101A700030E040E85BE30E943F200E945E1F6093DD
:101A80001B2270931C22C1E096CF0E948D1F20E084
:101A900030E040E052E40E943F2020E030E040E8A7
:101AA0005CE30E943F200E945E1F60931B227093A4
:101AB0001C22C1E080CF0E948D1F20E030E040E07A
:101AC00052E40E943F2020E030E040E05EE30E94CC
:101AD0003F200E945E1F60931B2270931C22C1E076
:101AE0006ACF0E948D1F20E030E040E052E40E9467
:101AF0003F2020E030E040E85EE30E943F200E946B
:101B00005E1F60931B2270931C22C1E054CF0E9481
:101B10008D1F20E030E040E052E40E943F2020E0B2
:101B200030E040E05FE30E943F200E945E1F609330
:101B30001B2270931C22C1E03ECF0E948D1F20E02B
:101B400030E040E052E40E943F200E945E1F60931C
:101B50001B2270931C222FCF0E948D1F20E030E0AB
:101B600040E052E40E943F2020E030E040E85AE3A9
:101B70000E943F200E945E1F60931B2270931C22D4
:101B8000C1E019CF0F93CF93DF9320E040E060E0F6
:101B900080E096E00E94C61020E040E061E080E036
:101BA00096E00E94C61020E040E067E080E696E004
:101BB0000E94C61020E040E066E080E696E00E94C9
:101BC000C61020E040E063E080E296E00E94C6108C
:101BD00021E040E060E080E696E00E94C61020E050
:101BE00040E061E080E696E00E94C61021E040E01F
:101BF00060E080E496E00E94C61020E040E061E0F2
:101C000080E496E00E94C61000E021E040E061E040
:101C100080E096E00E94F31022E040E061E080E086
:101C200096E00E94F31020E840E061E080E696E054
:101C30000E94F31020E440E061E080E696E00E941C
:101C4000F31028E041E061E080E296E00E94F310AA
:101C500021E041E061E080E696E00E94F31021E09F
:101C600041E061E080E496E00E94F31021E040E072
:101C700067E080E096E00E94DB1021E040E067E052
:101C800080E496E00E94DB1021E040E060E080EE1E
:101C900097E00E94DB1021E040E065E080E696E0FE
:101CA0000E94DB1021E040E063E080E096E00E94CB
:101CB000DB1021E040E064E080E096E00E94DB1071
:101CC00021E040E064E080E496E00E94DB1021E047
:101CD00040E065E080E496E00E94DB1021E040E017
:101CE00060E080E296E00E94DB1021E040E061E0ED
:101CF00080E296E00E94DB1021E040E065E080E0B9
:101D000096E00E94DB1021E040E066E080E096E093
:101D10000E94DB1021E040E062E080E696E00E9455
:101D2000DB1021E040E062E080E296E00E94DB1000
:101D3000E0E0F6E080E88683A0E4B6E016968C93B7
:101D4000169791E09093E607C0E6D6E080E28E8396
:101D500028E0258320E1268315962C931597169667
:101D60008C93A0E2B6E016969C93169792E0169696
:101D70009C931697868380E4868384E08E831596F1
:101D80008C93DF91CF910F910895809197218823B3
:101D900099F081E080936606109200098091952168
:101DA000882391F01092952110929B2110929721F7
:101DB00080E88093060608C00E9461176CE472E216
:101DC00084E592E20E944B17189580919521882313
:101DD00059F01092952110929B2180E099E00E9489
:101DE000481180E880930606809123228130A1F477
:101DF0008093212240914C2250914D226091542297
:101E00007091552280915622909157220E943E1740
:101E100060E080E20E94AF17189580919621882398
:101E200099F081E0809346061092000880919421F9
:101E3000882391F01092942110929A211092962169
:101E400080E88093460608C00E94611762E572E24E
:101E50008EE492E20E944B1718958091942188237A
:101E600059F01092942110929A2180E098E00E94FB
:101E7000481180E880934606809124228130A1F4A5
:101E800080932222409152225091532260914E22FF
:101E900070914F2280915022909151220E943E17C2
:101EA00060E081E20E94AF17189580913322811182
:101EB00004C080910806817004C080910806869550
:101EC0008170882391F080912322811107C082E0E4
:101ED0008093212261E080E20E94AF17809143222B
:101EE000823049F48093650606C080914322823097
:101EF00011F480936606189580913C22811106C0EA
:101F000080916806881F8827881F05C08091680611
:101F100086FB882780F9882391F080912422811103
:101F200007C082E08093222261E081E20E94AF1725
:101F300080914422823049F48093450606C0809106
:101F40004422823011F48093460618958091280629
:101F500083FF16C08091A421811126C081E0809367
:101F6000A421909131229F30F9F090913A229F3034
:101F7000D9F080934B2261E080E40E94AF1714C037
:101F80008091A421882381F01092A4218091312294
:101F90008F3051F080913A228F3031F010924B22E5
:101FA00061E080E40E94AF1718958091680680FF79
:101FB00015C080912322813089F4909131229F3085
:101FC00069F48093212261E080E20E94AF170E94B1
:101FD000731B882319F080E880930506189580917B
:101FE000480680FF15C080912422813089F49091A9
:101FF0003A229F3069F48093212261E080E20E94BE
:10200000AF170E94731B882319F080E88093450660
:1020100018950E9460018091A20087688093A200B9
:102020007894FFCF222309F45BC030E23093520052
:1020300038E0309350003091510033FFFCCF6115F0
:1020400038E4730738EE830731E0930709F482C060
:10205000611534E2730734EF8307910509F47CC0FE
:10206000611532E173073AE78307910509F44BC024
:10207000611539E073073DE38307910509F46EC0EC
:10208000603834E873073EE18307910509F460C0C6
:10209000603432E473073FE08307910509F462C0BE
:1020A000603231EA730737E08307910509F458C0BD
:1020B000603930ED730733E08307910509F454C0AC
:1020C000683438EE730731E08307910509F44EC098
:1020D0006432744F8105910509F04AC084E414C04C
:1020E00032E2309352003AE0309350003091510088
:1020F00031FFFCCF3091510033FDA1CF3091510021
:1021000033FFF8CF9CCF8CE098ED94BF222399F059
:1021100023E02093400094BF80934100442329F0A2
:1021200088ED84BF81E08093420088ED84BF81E028
:1021300080938000089521E02093400094BF809315
:10214000410094BF82E08093560020936000E6CF68
:102150008CE1DACF80E0D8CF84E0D6CF84E1D4CF51
:102160008CE2D2CF84E2D0CF84E3CECF8CE3CCCF4D
:1021700080E0089588ED84BF81E080938000089519
:1021800088ED84BF83E080938000FFCFFC01308125
:1021900081E090E0062E01C0880F0A94EAF780954E
:1021A000832380837096E60FF11D8081422B807C13
:1021B000482B40830895FC01308181E090E0062E99
:1021C00001C0880F0A94EAF7382B30837096E60F27
:1021D000F11D8081807C842B8083211103C080814C
:1021E0008760808308950F93FC013185842F90E0F0
:1021F000880F991FA3E0B0E0082E01C0AA0F0A942F
:10220000EAF7A095A323082E01C0660F0A94EAF707
:10221000A62BA18741110FC00023A9F02287248596
:1022200081E090E0042E01C0880F0A94EAF7282B81
:1022300024870F910895413091F7011108C08385DB
:10224000822B8387ECCF8285822B8287E8CF2387FE
:10225000E6CFFC0110828CE081874150510946A3F2
:1022600057A3268360830895EF920F93FC01108299
:102270008CE081874150510946A357A320A731A77D
:102280000683E78283E1818360830F91EF90089555
:10229000FC0110822CE0218708954F925F926F928B
:1022A0007F928F929F92AF92BF92EF92FF920F9385
:1022B0001F932B013C0149015A0120E030E0A901A4
:1022C000C501B4010E94E71E882309F442C0C3017E
:1022D000B2010E948D1FA50194010E94EC1E20E016
:1022E00030E040E05FE30E947B1E0E945E1F6115AC
:1022F000710521E082079105A0F421E0F801208317
:10230000F7016083718381E01F910F91FF90EF903F
:10231000BF90AF909F908F907F906F905F904F9005
:102320000895969587957795679561157105F1E004
:102330008F07910580F0969587957795679561153C
:102340007105F1E08F07910550F423E0F801208337
:10235000D7CF80E0D9CF22E0F8012083D1CF969566
:1023600087957795679561157105F1E08F07910560
:1023700088F0A3E09695879577956795AA95D1F70C
:1023800061157105F1E08F07910540F425E0F80132
:102390002083B6CF24E0F8012083B2CF96958795AD
:1023A00077956795969587957795679561157105EA
:1023B000F1E08F07910520F426E0F8012083A0CFFB
:1023C000969587957795679596958795779567956F
:1023D00061157105F1E08F07910508F0BACF27E08C
:1023E000F80120838DCFFC0110828CE08187415061
:1023F000510946A357A32683608308952091CF01F6
:1024000027FDFCCF8093C0019093C1011092C201BF
:1024100086E08093CA0188ED84BF81E08093CB0180
:102420008091C40108952091CF0127FDFCCF209118
:10243000CF0121FF08C026E32093CA0128ED24BF65
:1024400021E02093CB0123E32093CA018093C001B4
:102450009093C1011092C2016093C40185E38093FF
:10246000CA0188ED84BF81E08093CB010895CF93AA
:10247000962F10920A22803208F47FC0282F30E075
:1024800020523109F901E85FFE4D5081220F331FC0
:10249000F901EA53FF4DC081F901EC57FF4D20814E
:1024A00031812093AB213093AC2190935822252F7A
:1024B0002F702C9FC02D1124EAE0EC0FE0935922DD
:1024C00080935A222FEF20935B22506150935C221D
:1024D00041116BC08091A7219091A821A091A921C1
:1024E000B091AA2180935D2290935E22A0935F22F7
:1024F000B09360222091A5213091A62120936122E2
:10250000309362228E2F90E08E3F9105A4F52091AA
:10251000AB213091AC2140E0842F90E0F901E80F2D
:10252000F91F5081FC01ED59FD4D50834F5F4C1355
:10253000F3CF209159222E5F30E02150310912163D
:1025400013060CF09FC080E090E040E050E0FC01FA
:10255000E85AFD4D8081580F4F5F842F90E082171D
:102560009307ACF3F901E85AFD4D5083809129217E
:10257000813009F46BC0CF9108958F30E0F7282F98
:1025800030E0F901EC57FE4D5081220F331FF90165
:10259000EA59FE4DC081F901E85BFE4D2081318191
:1025A0002093AB213093AC2180CF20914C084091F7
:1025B000BF215091C0216091C1217091C22120FFA3
:1025C00021C04F5F5F4F6F4F7F4F40935D2250930D
:1025D0005E2260935F2270936022209160083091A8
:1025E00061082093612230936222883009F08ACFFB
:1025F000933009F087CF1092612210926222E0910D
:10260000592280CF40935D2250935E2260935F22D7
:1026100070936022209160083091610820936122BC
:1026200030936222F091B021F03DF9F62F30310560
:10263000E0F64F5F5F4F6F4F7F4F40935D225093A7
:102640005E2260935F2270936022CFCF83E88093F5
:10265000A200C091A30A9091A30A9C7F9093A30A21
:10266000609159226E5F88E592E20E946F1C909102
:10267000A30A8C2F8370892B8093A30A87E8809309
:10268000A20079CF50E06ECFCF93E0915B2B2E2F3D
:1026900030E024303105BCF090E020E030E0F9017A
:1026A000E15AF44D4081F901EB59F44D40839F5FAD
:1026B000292F30E0E0915B2B4E2F50E04350510921
:1026C0002417350764F380935A2BEA5FE0935B2B62
:1026D00080915E2B806180935E2B80914C0880FFFF
:1026E0005FC08091BF219091C021A091C121B09184
:1026F000C221AC01BD014F5F5F4F6F4F7F4F4093D1
:102700005F2B5093602B6093612B7093622B209111
:102710006008309161082093632B3093642B2091E3
:102720000A222223B9F020914C0820FF69C00196AB
:10273000A11DB11D80935F2B9093602BA093612B03
:10274000B093622B80916008909161088093632B15
:102750009093642BF0E0E55AF44D108260915B2B6E
:1027600040E0262F30E080E090E0F901E55AF44D9A
:10277000DC01A65AB44D20818C91280F20834F5F35
:1027800060915B2B262F30E0842F90E028173907CB
:1027900064F780912921813009F457C0CF910895C1
:1027A0008091BF219091C021A091C121B091C221FF
:1027B00080935F2B9093602BA093612BB093622B3F
:1027C00020916008309161082093632B3093642B33
:1027D0004091B021403D09F0A2CF2F30310508F0E3
:1027E0009ECFAC01BD014F5F5F4F6F4F7F4F409356
:1027F0005F2B5093602B6093612B7093622B8FCF74
:1028000080935F2B9093602BA093612BB093622BEE
:1028100020916008309161082093632B3093642BE2
:102820004091B021403D09F095CF2F30310508F09F
:1028300091CF0196A11DB11D80935F2B9093602BCA
:10284000A093612BB093622B85CF83E88093A20085
:10285000C091A30A9091A30A9C7F9093A30A6E5FF4
:102860008AE59BE20E946F1C9091A30A8C2F8370D3
:10287000892B8093A30A87E88093A200CF910895C3
:102880002F923F924F925F926F927F928F929F9280
:10289000AF92BF92CF92DF92EF92FF920F931F936E
:1028A000CF93DF931F92CDB7DEB73C01462E142F96
:1028B000F22E3E882F88988C598C0E94BA1021E005
:1028C00041E060E078E488EE91E00E94121081E03F
:1028D000809348006092B6217092B7214092B8214F
:1028E0001093B921E092BA218093BB218AE08093B2
:1028F000BC21F092BD210093BE211092BF21109205
:10290000C0211092C1211092C2211092C3211092B5
:10291000C42182E090E00E94FE11482E83E090E006
:102920000E94FE1189838F3F09F426C1F41409F433
:10293000D7C06FED80E090E00E9413126F2D82E00F
:1029400090E00E94131261E083E090E00E94131275
:102950000E94A50180E090E00E94FE118E3E09F4E5
:10296000CCC080E68093C52180E48093E2210E9460
:1029700023068091E2219110A5C090E0892B55207B
:1029800009F4A4C090E1892B8093E2210E94A30165
:1029900080E48093C6210E941F020E945002A092F0
:1029A000B421B092B521C092B221D092B3218092CD
:1029B000B12187E090E00E94FE118F3F09F41BC116
:1029C00007EC11E2F6EFEF2EFF24FA94C701865BC5
:1029D00091427C01C701800F911F0E94FE11F801F6
:1029E00081938F01F1E2003E1F07A1F789E1E7EC37
:1029F000F1E2A4EEB1E201900D928A95E1F784E054
:102A000090E00E94FE11082F10E00093E021109347
:102A1000E12185E090E00E94FE11302F2227282B33
:102A20002093E0213093E1218091E221992009F463
:102A30004FC08860511050C08F7E8093E22121E00A
:102A400042E15AE767E080E498E00E94F311E091E8
:102A5000B02181E08E0F8093B021F0E0E05CFE4D6C
:102A6000808190E00197809368089093690811E055
:102A70001093470820E040E060E080EE97E00E947D
:102A8000DB101093E50740E060E081E090E00E94F9
:102A9000791B0E94D71B8FEB91E20F90DF91CF91B2
:102AA0001F910F91FF90EF90DF90CF90BF90AF906C
:102AB0009F908F907F906F905F904F903F902F905E
:102AC0000C94921D98E0892B51105CCF90E05BCF65
:102AD000877F552009F4B0CF80618093E221AFCF8A
:102AE0009981913009F025CF0E94A50180E090E006
:102AF0000E94FE118E3E09F034CF81E090E00E94EA
:102B0000FE118093C521A114B10499F076018501CD
:102B10000C0D1D1DA0E26A2E712CC3010E94FE1136
:102B2000F70181937F01FFEF6F1A7F0AE016F1062C
:102B3000A1F786E090E00E94FE11982F9F779064A5
:102B40009093E221992011F080FD72C051100AC0CB
:102B500097FD73C096FD0DC080E88093C6210E944A
:102B600050021DCF91FFF4CF0E9422069091E221E6
:102B7000EFCF0E942306F0CF6F2D82E090E00E94FD
:102B8000131261E083E090E00E94131282E090E073
:102B90000E94FE11482E83E090E00E94FE1189837E
:102BA000032D122DB7E06B2E712CE12C0CC0E1101F
:102BB0000FC0C3010E941312FFEF6F1A7F0A80E259
:102BC0006816710491F0F80161918F016111EFCFE6
:102BD00060E0C3010E941312EE24E394FFEF6F1A2A
:102BE0007F0A80E26816710471F76FED80E090E073
:102BF0000E9413129BCEE32CF22C07E010E0D12CA4
:102C00000BC0D1100EC0C8010E9413120F5F1F4FDE
:102C10000032110509F4D4CEF70161917F016111F1
:102C2000F0CF60E0C8010E941312DD24D394EECFF0
:102C30000E9418069091E22189CF0E94240690916B
:102C4000E22188CF0E948C0121E080E092EEA4E096
:102C5000B0E00197A109B1090097A105B105C9F735
:102C60002093E707F2CF8091BF219091C021A091DE
:102C7000C121B091C2210196A11DB11D8093BF2138
:102C80009093C021A093C121B093C22180910822CA
:102C90008F5F809308228EE090E080936808909385
:102CA000690881E08093B0210E94C00280914C08A5
:102CB000806180934C080E94C2020E945F03409191
:102CC000C52147FD03C0842F8370B4C0842F837057
:102CD000813009F0AFC010920A228FEB91E280930D
:102CE000AB219093AC2183E0809358228EE08093B7
:102CF000592288E080935A228FEF80935B2284E1EF
:102D000080935C2280914C0880FF18C08091BF2185
:102D10009091C021A091C121B091C2210196A11D25
:102D2000B11D80935D2290935E22A0935F22B093A9
:102D30006022809160089091610826C08091BF2137
:102D40009091C021A091C121B091C22180935D22B8
:102D500090935E22A0935F22B0936022209160083E
:102D6000309161085091B021503D71F42F30310500
:102D700058F40196A11DB11D80935D2290935E22AF
:102D8000A0935F22B093602210926122109262227F
:102D90008091BF219091C021A091C121B091C22109
:102DA0008093632290936422A0936522B09366225D
:102DB000209159222E5F30E021503109121613065E
:102DC00084F450E060E080E090E0FC01E85AFD4DC2
:102DD0008081680F5F5F852F90E082179307ACF3C7
:102DE00001C060E0F901E85AFD4D6083809129211E
:102DF000813029F583E88093A200C091A30A9091C5
:102E0000A30A9C7F9093A30A609159226E5F88E584
:102E100092E20E946F1C9091A30A8C2F8370892BE1
:102E20008093A30A87E88093A2004091C521842F54
:102E3000837000C0882339F0813019F400C092E01B
:102E400003C091E001C094E08091BF21892321F06B
:102E500081E08093E60705C046FF03C081E08093D0
:102E6000E5070E94C10280914C0884FF06C0809152
:102E7000AF21811102C00E94221618956093A721EC
:102E80007093A8218093A9219093AA214093A52112
:102E90005093A6210895FB014091A7215091A821AC
:102EA0006091A9217091AA21DC014D935D936D93EE
:102EB0007C9313978091A5219091A6218083918383
:102EC000089510920A2280914C0880FF1CC08091C6
:102ED000BF219091C021A091C121B091C221019642
:102EE000A11DB11D8093A7219093A821A093A92192
:102EF000B093AA2180916008909161088093A521E8
:102F00009093A62108958091BF219091C021A09116
:102F1000C121B091C2218093A7219093A821A093B1
:102F2000A921B093AA2120916008309161082093D3
:102F3000A5213093A6214091B021403D09F008958C
:102F40002F303105E0F70196A11DB11D8093A72117
:102F50009093A821A093A921B093AA2108959091BC
:102F6000C5219370913009F00895462F63E00C94C9
:102F70003712FF920F931F93CF93DF93FC01808151
:102F80008130F1F0823009F448C0843009F44DC03A
:102F9000883039F081E0DF91CF911F910F91FF9040
:102FA00008956FEF87E090E00E94131283E0809312
:102FB000AF2181E0DF91CF911F910F91FF90089594
:102FC00004EE11E2C7E0D0E0F12C09C0F1100CC012
:102FD000CE010E9413122196C032D10579F0F8017A
:102FE00061918F016111F2CF60E0CE010E94131256
:102FF000FF24F3942196C032D10589F76FED80E06C
:1030000090E00E94131283E08093AF2181E0DF9172
:10301000CF911F910F91FF90089580E090E00E9462
:10302000FE118E3E19F280E0B6CF6EEE80E090E0A9
:103030000E9413126091C52181E090E00E9413125A
:103040006091E22186E090E00E9413128091B42109
:103050009091B521892B09F4A9CFC0E0D0E0E0918F
:10306000B221F091B321EC0FFD1F6081CE0180965B
:103070000E94131221968091B4219091B521C81716
:10308000D90768F393CF8091E22183FF04C080FFCA
:1030900004C081E0089580E008958D7F8160809371
:1030A000E2210E9418068091E22187FFF2CF8F77FC
:1030B00080648093E2210E942306EBCFCF93DF93BD
:1030C000FC01C0818C2F8170C0FF04C09091E2216F
:1030D00093FF34C0DC2FD270C1FF04C09091E22175
:1030E00094FF2CC0C7FD26C0882321F08091E221E7
:1030F00080FF28C0DD2321F08091E22181FF33C0D1
:10310000C6FF04C08091E22186FF34C0C7FD04C021
:1031100081E0DF91CF9108958091E22187FDF8CF82
:103120008F7B80688093E2210E94240681E0DF91FA
:10313000CF9108959091E22190FFD6CF80E0DF916A
:10314000CF9108958D7F81608093E2210E941806BF
:103150008091E22187FFCECF8F7780648093E22138
:103160000E942306C7CF8E7F82608093E2210E9457
:103170002206C6CF8F7780648093E2210E942306C7
:10318000C5CFCF92DF92FF920F931F93CF93DF9320
:1031900000D0CDB7DEB78F3040F4E82FF0E0DF018C
:1031A000AC57BE4D9C91961759F080E00F900F9050
:1031B000DF91CF911F910F91FF90DF90CF900895F5
:1031C000EE0FFF1FEA59FE4D608171816217730790
:1031D00061F7883009F446C08A30B9F08B3009F4C1
:1031E00083C08C3009F497C08D3009F44EC08E3006
:1031F000E1F6CA010F900F90DF91CF911F910F91CF
:10320000FF90DF90CF900C945E18FA01108116FDAC
:1032100003C081E08093E6070091C521812F837F61
:103220008093C52115FF5BC005FF93C013FF0EC03F
:1032300081E0809300221092FE218093FF21109262
:10324000FD218091C521877F8093C5211370E9F509
:10325000037011F481E0AACF109200220E94B702FD
:1032600081E0A4CF8091E22187FD9FCFFA01808188
:103270009181A281B3818093BF219093C021A093BB
:10328000C121B093C22181E091CFFA018081918167
:10329000019609F461C08091E321882309F485CF68
:1032A000FA01608185E090E049835A830E941312FD
:1032B00049815A81FA01618184E090E00E941312F1
:1032C00083E08093AF2181E071CF1130C9F40370A6
:1032D000013009F4BFCF0E94BE0281E067CF05FF35
:1032E000A5CF0E94AE02A2CFCA010F900F90DF912E
:1032F000CF911F910F91FF90DF90CF900C94B91751
:10330000133009F0A7CF0370033009F4A3CF0E9454
:10331000BF0281E04BCF8A0187E0C82ED12CF12C6F
:103320000CC0F1100FC0C6010E941312FFEFCF1A9C
:10333000DF0A20E2C216D10419F2F80161918F016F
:103340006111EFCF60E0C6010E941312FF24F394D5
:10335000EDCF0E948E026ACF81E08093E32126CFD9
:103360000E94C0028091680890916908E091B021A4
:1033700021E02E0F2093B021E770F0E0E05CFE4DDD
:103380003081830F911D809368089093690820FD18
:103390002FC180912921813071F482E080938506CC
:1033A00083E88093A2008091A30A8F7C8093A30A74
:1033B00087E88093A20080910722811103C0809149
:1033C00006220FC0815080930722882319F0809134
:1033D000062207C0109207221092062210920122A4
:1033E000A5C0882309F4A2C0A0915823B091592305
:1033F00080915B2B8F3F59F010915C2B50915D2B8E
:1034000000915E2B3FE5E32E3BE2F32E0AC01091C4
:103410005E2B50915F2B0091602B21E6E22E2BE278
:10342000F22EFD01319681F090E040E020E030E0A6
:10343000E901C65AD44D2881420F9F5F292F30E001
:103440002E173F07A8F301C040E0E65AF44D9081E3
:1034500049136AC05F3F09F067C090915A2B9130C1
:10346000A9F51D31B0F41F3008F028C1E12FF0E0BC
:10347000EC57FE4D9081091321C1193009F019C193
:1034800080916008909161088093C3219093C4213A
:1034900010C1602F812F0E942B069091C52194FDB1
:1034A00043C0811103C080915B2B06C041E061E005
:1034B000812F0E94371238C010920A2290E0883F74
:1034C000910594F589E00E9444132EC0CD01049724
:1034D000202F2F70622F70E00E94511E1D3138F492
:1034E0009B01A701602F812F0E94C11806C09B017C
:1034F000A701602F812F0E9444069091C52194FD61
:1035000013C0882331F041E062E0812F0E9437121E
:103510000BC010920A2280915B2B90E0883F9105AE
:103520001CF48AE00E944413109206228091292103
:10353000813009F05AC08091880680FF44C0809194
:10354000AD219091AE210196883B2BE0920729F0A6
:103550008093AD219093AE213AC01092AD2110928C
:10356000AE218091C521982F93709130D9F486FFB8
:103570009093E607982F907F9093C52183FF0BC00F
:103580001092FE2181E08093FF211092FD21892F6E
:10359000877F8093C521109200220E94B7029091EC
:1035A000292101C091E0109204221092052210926C
:1035B0000222109203228091A30A8C7F8093A30A97
:1035C000913029F012C01092AD211092AE2183E803
:1035D0008093A2008091A30A80638093A30A87E866
:1035E0008093A20082E0809386060E945E0302C060
:1035F0000E945F038091AF21882339F0815080932E
:10360000AF21811102C00E94C0108091FF21882348
:10361000E1F08091B02183708230B9F48091FD2176
:103620008F3060F4893009F04EC0209160083091ED
:1036300061082093C3213093C42145C08F5F8093DC
:10364000FD218C3111F41092FF21809100228823FA
:1036500011F18091B0218370F1F48091FE21E82F67
:10366000F0E0E85FFE4D6081805E0E942B068823BB
:1036700039F08091FE2141E061E0805E0E943712C6
:103680008091FE218F5F8093FE219091B12189135B
:1036900002C0109200220E94C10280914C0884FF57
:1036A00006C08091AF21811102C00E942216189598
:1036B00011C08091C52184FFF9CE36CF9091C521EC
:1036C00094FFFACE31CF41E061E00E943712809141
:1036D000FD21B4CF6091BF217091C0218091C121A3
:1036E0009091C22108958091C52185FB882780F99A
:1036F0000895FF920F931F93CF93DF9300D0CDB720
:10370000DEB789839A83F62E142F20E040E061E033
:1037100080E896E00E94DB1020E040E060E080E876
:1037200096E00E94C61001E021E040E063E080E8FE
:1037300096E00E94F31082E08093860683E08093F7
:10374000A50A89818093A60A8F2D90E18902B00194
:1037500011248A818F70862B8093A70A112329F068
:103760008091A40A84608093A40A88E080938506EF
:1037700020E040E063E080E896E00E94DB1020E07B
:1037800040E062E080E896E00E94C61080918806E2
:1037900080FF05C08091A30A8C7F8093A30A0F90BD
:1037A0000F90DF91CF911F910F91FF900895E0EA64
:1037B000FAE084818861848380EE818383818063E1
:1037C000838308951F920F920FB60F9211242F93A7
:1037D0003F934F935F936F937F938F939F93AF9399
:1037E000BF93EF93FF930E9427062091042230910C
:1037F0000522C90101968093042290930522F901C4
:10380000E65AFC4D20812093A00A811528E09207FA
:10381000F9F020910222309103222817390729F468
:103820008091A30A8C7F8093A30A0E942806FF91AF
:10383000EF91BF91AF919F918F917F916F915F9128
:103840004F913F912F910F900FBE0F901F901895A1
:10385000109204221092052280E090E0DACF1F92AD
:103860000F920FB60F9211242F933F934F935F93B4
:103870006F937F938F939F93AF93BF93EF93FF9338
:103880000E9429068091880680FD23C02091042291
:103890003091052280910222909103222817390746
:1038A00029F08091A30A83608093A30A0E942A06CC
:1038B000FF91EF91BF91AF919F918F917F916F9108
:1038C0005F914F913F912F910F900FBE0F901F90DE
:1038D00018958091A30A8C7F8093A30AE7CFBF92AB
:1038E000CF92DF92EF92FF920F931F93CF93DF93CC
:1038F0006C01B62E8091880680FD05C08091A30AD8
:1039000083608093A30A0091022210910322C0E0F9
:10391000D8E0C01BD10BEB2CF12CCE15DF0560F1EC
:10392000A701B601C801865A9C4D0E94AC20809127
:10393000042290910522E00EF11EE0920222F09204
:103940000322E11428E0F20609F448C00817190719
:10395000B8F5E816F906A0F18FEFE81AF80AE09238
:103960000422F0920522E11428E0F20649F51092B3
:1039700004221092052224C0AE01B601C801865A65
:103980009C4D0E94AC20BC1AEB2CF12CBE016C0D9E
:103990007D1DA7018AE593E20E94AC20809104225C
:1039A00090910522E0920222F09203220817190753
:1039B00088F42FEFE21AF20AE0920422F092052234
:1039C000DF91CF911F910F91FF90EF90DF90CF90FB
:1039D000BF900895E816F90660F7F2CF1092022220
:1039E00010920322892B61F781E090E080930422FA
:1039F00090930522E5CF1F920F920FB60F921124DC
:103A00002F933F934F935F936F937F938F939F93E6
:103A1000AF93BF93EF93FF930E9425069091A00A66
:103A2000E091012281E08E0F80930122F0E0E65ABE
:103A3000F44D90838130E9F0843019F190E02091C9
:103A40005823309159238217930749F10E94260683
:103A5000FF91EF91BF91AF919F918F917F916F9166
:103A60005F914F913F912F910F900FBE0F901F903C
:103A7000189580915A2B81508230D0F110920122FA
:103A8000E5CF80915B2B8F3F01F190E08E3F910558
:103A9000A9F302968093582390935923D7CF20916E
:103AA0002921213061F120915B2B2F3F29F122E068
:103AB00030E0821B930B80935823909359231092EC
:103AC000012281E080930622C1CF80915B2B9091EF
:103AD0005C2B04968F3F910509F080F680915C2B5A
:103AE00090915D2B04968093582390935923AECFE9
:103AF00082E380930722AACF24E030E0DACF82E08D
:103B00008093850683E88093A2008091A30A8F7C2E
:103B10008093A30A87E88093A20080915823909114
:103B20005923C1CFCF93DF9300D0CDB7DEB723E1C8
:103B300030E029833A8380930B2290930C2283E018
:103B40008093A50889818093A6088A818F708093CD
:103B5000A70820E048E162E080E496E00E94C610F9
:103B600080E18093A408E3EAF8E0808180638083A9
:103B70000F900F90DF91CF9108951F920F920FB683
:103B80000F9211242F938F939F93AF93BF93EF9333
:103B9000FF938091A0088A3AE9F18F3A09F449C06D
:103BA00090910922923009F448C008F472C0943010
:103BB00009F44FC008F447C0953079F5809310227E
:103BC00010920922809108228A3008F448C082EFBE
:103BD00099E7809360089093610881E09AE7809369
:103BE00068089093690881E080930A2226E0209378
:103BF0002A21E0910B22F0910C2280910D229091CC
:103C00000E22A0910F22B091102280839183A28373
:103C1000B38303C081E080930922FF91EF91BF91AC
:103C2000AF919F918F912F910F900FBE0F901F908A
:103C3000189582E080930922F0CF80930D2283E0D3
:103C400080930922EACF80930E2284E08093092298
:103C5000E4CF80930F2285E080930922DECF10927B
:103C6000082220912A2189EF99E7821B91098093EC
:103C700060089093610881E09AE7809368089093C8
:103C8000690881E080930A22222309F4B2CF2150EF
:103C9000AECF992319F0913009F0BFCF10920922CD
:103CA000BCCFAA1BBB1B51E107C0AA1FBB1FA61795
:103CB000B70710F0A61BB70B881F991F5A95A9F7D5
:103CC00080959095BC01CD010895EE0FFF1F0590E2
:103CD000F491E02D0994A29FB001B39FC001A39F6E
:103CE000700D811D1124911DB29F700D811D112435
:103CF000911D08955058BB27AA270E94921E0C942C
:103D000005200E94F71F38F00E94FE1F20F039F4B2
:103D10009F3F19F426F40C94F41F0EF4E095E7FB92
:103D20000C94EE1FE92F0E94162058F3BA17620771
:103D300073078407950720F079F4A6F50C943820D2
:103D40000EF4E0950B2EBA2FA02D0B01B9019001B6
:103D50000C01CA01A0011124FF27591B99F0593FFA
:103D600050F4503E68F11A16F040A22F232F342F42
:103D70004427585FF3CF469537952795A795F04090
:103D80005395C9F77EF41F16BA0B620B730B840BA5
:103D9000BAF09150A1F0FF0FBB1F661F771F881F5D
:103DA000C2F70EC0BA0F621F731F841F48F48795B5
:103DB00077956795B795F7959E3F08F0B0CF9395A7
:103DC000880F08F09927EE0F9795879508950E9420
:103DD000CA1F08F481E008950E94001F0C9405207A
:103DE0000E94FE1F58F00E94F71F40F029F45F3F29
:103DF00029F00C94EE1F51110C9439200C94F41FEF
:103E00000E94162068F39923B1F3552391F3951B73
:103E1000550BBB27AA2762177307840738F09F5FEB
:103E20005F4F220F331F441FAA1FA9F335D00E2E58
:103E30003AF0E0E832D091505040E695001CCAF7C5
:103E40002BD0FE2F29D0660F771F881FBB1F261788
:103E500037074807AB07B0E809F0BB0B802DBF015F
:103E6000FF2793585F4F3AF09E3F510578F00C942E
:103E7000EE1F0C9439205F3FE4F3983ED4F386950F
:103E800077956795B795F7959F5FC9F7880F911D4F
:103E90009695879597F90895E1E0660F771F881F3B
:103EA000BB1F621773078407BA0720F0621B730BEE
:103EB000840BBA0BEE1F88F7E09508950E941E2030
:103EC00088F09F5798F0B92F9927B751B0F0E1F0DB
:103ED000660F771F881F991F1AF0BA95C9F714C08B
:103EE000B13091F00E943820B1E008950C94382050
:103EF000672F782F8827B85F39F0B93FCCF38695C4
:103F000077956795B395D9F73EF490958095709520
:103F100061957F4F8F4F9F4F0895E89409C097FB9D
:103F20003EF490958095709561957F4F8F4F9F4F90
:103F30009923A9F0F92F96E9BB279395F6958795D4
:103F400077956795B795F111F8CFFAF4BB0F11F497
:103F500060FF1BC06F5F7F4F8F4F9F4F16C088233E
:103F600011F096E911C0772321F09EE8872F762F74
:103F700005C0662371F096E8862F70E060E02AF0B5
:103F80009A95660F771F881FDAF7880F96958795A1
:103F900097F90895990F0008550FAA0BE0E8FEEF76
:103FA00016161706E807F907C0F012161306E407FD
:103FB000F50798F0621B730B840B950B39F40A26F6
:103FC00061F0232B242B252B21F408950A2609F4D4
:103FD000A140A6958FEF811D811D089597F99F67D8
:103FE00080E870E060E008959FEF80EC0895002481
:103FF0000A941616170618060906089500240A944E
:1040000012161306140605060895092E0394000CD3
:1040100011F4882352F0BB0F40F4BF2B11F460FF62
:1040200004C06F5F7F4F8F4F9F4F089557FD90588B
:10403000440F551F59F05F3F71F04795880F97FB6C
:10404000991F61F09F3F79F0879508951216130626
:104050001406551FF2CF4695F1DF08C01616170655
:104060001806991FF1CF869571056105089408958A
:10407000E894BB2766277727CB0197F908950E941C
:1040800052200C9405200E94F71F38F00E94FE1F5A
:1040900020F0952311F00C94EE1F0C94F41F1124C2
:1040A0000C9439200E94162070F3959FC1F3950F50
:1040B00050E0551F629FF001729FBB27F00DB11DAC
:1040C000639FAA27F00DB11DAA1F649F6627B00D3C
:1040D000A11D661F829F2227B00DA11D621F739F25
:1040E000B00DA11D621F839FA00D611D221F749F33
:1040F0003327A00D611D231F849F600D211D822F7A
:10410000762F6A2F11249F5750409AF0F1F08823A0
:104110004AF0EE0FFF1FBB1F661F771F881F9150CD
:104120005040A9F79E3F510580F00C94EE1F0C946F
:1041300039205F3FE4F3983ED4F3869577956795F1
:10414000B795F795E7959F5FC1F7FE2B880F911DF7
:104150009695879597F90895FB01DC0102C00190BF
:0E4160000D9241505040D8F70895F894FFCFCB
:10416E00C509C30964066F06A9078A06D706E606BF
:10417E00F506FB06AC085E087709E409D90A0107C3
:10418E000707E10885089D09D30BC80C0D07130717
:10419E001609460919071F0725073E0758077E0708
:1041AE00A707CB09C709C809C9097A06D609D709CD
:1041BE00D809D909DA09DB09DC09DD09DE09DF09CD
:1041CE00E009E109E209E309D009D109D209D309CD
:1041DE00D409D509CC09CD09CE09CF09CA0957078B
:1041EE0071079F0721222222232224222522262202
:1041FE0027222B222F223022312232223322342226
:10420E003622382239223A223B223C223D223F22BC
:10421E00412242224322442245224622472248225C
:10422E0049224A224B220100010001000100010037
:10423E000100010001000100010001000100010068
:10424E000100010001000100010001000100010058
:10425E000100010001000100010001000100010048
:10426E00010001000100010001010101010104042E
:10427E00010101010102020101010101020201011C
:10428E00010101010101010101010743616D657227
:10429E0061436F6E74726F6C6C657247656E32003F
:1042AE000F10100F100F1010B621B821B921BA211E
:1042BE00BB21BC21BD21BE21BF21C321C521C621E9
:1042CE00C721E021E22101000100010001000100EF
:1042DE0001000100010001000100010001001900B0
:1042EE0001000100020101010101010104020101AD
:0442FE0001020100B8
:00000001FF
